{
  "_format": "hh-sol-artifact-1",
  "contractName": "Sect8AgentManager",
  "sourceName": "contracts/Sect8AgentManager.sol",
  "abi": [
    {
      "inputs": [],
      "stateMutability": "nonpayable",
      "type": "constructor"
    },
    {
      "inputs": [
        {
          "internalType": "address",
          "name": "sender",
          "type": "address"
        },
        {
          "internalType": "uint256",
          "name": "tokenId",
          "type": "uint256"
        },
        {
          "internalType": "address",
          "name": "owner",
          "type": "address"
        }
      ],
      "name": "ERC721IncorrectOwner",
      "type": "error"
    },
    {
      "inputs": [
        {
          "internalType": "address",
          "name": "operator",
          "type": "address"
        },
        {
          "internalType": "uint256",
          "name": "tokenId",
          "type": "uint256"
        }
      ],
      "name": "ERC721InsufficientApproval",
      "type": "error"
    },
    {
      "inputs": [
        {
          "internalType": "address",
          "name": "approver",
          "type": "address"
        }
      ],
      "name": "ERC721InvalidApprover",
      "type": "error"
    },
    {
      "inputs": [
        {
          "internalType": "address",
          "name": "operator",
          "type": "address"
        }
      ],
      "name": "ERC721InvalidOperator",
      "type": "error"
    },
    {
      "inputs": [
        {
          "internalType": "address",
          "name": "owner",
          "type": "address"
        }
      ],
      "name": "ERC721InvalidOwner",
      "type": "error"
    },
    {
      "inputs": [
        {
          "internalType": "address",
          "name": "receiver",
          "type": "address"
        }
      ],
      "name": "ERC721InvalidReceiver",
      "type": "error"
    },
    {
      "inputs": [
        {
          "internalType": "address",
          "name": "sender",
          "type": "address"
        }
      ],
      "name": "ERC721InvalidSender",
      "type": "error"
    },
    {
      "inputs": [
        {
          "internalType": "uint256",
          "name": "tokenId",
          "type": "uint256"
        }
      ],
      "name": "ERC721NonexistentToken",
      "type": "error"
    },
    {
      "inputs": [
        {
          "internalType": "address",
          "name": "owner",
          "type": "address"
        }
      ],
      "name": "OwnableInvalidOwner",
      "type": "error"
    },
    {
      "inputs": [
        {
          "internalType": "address",
          "name": "account",
          "type": "address"
        }
      ],
      "name": "OwnableUnauthorizedAccount",
      "type": "error"
    },
    {
      "anonymous": false,
      "inputs": [
        {
          "indexed": true,
          "internalType": "uint256",
          "name": "tokenId",
          "type": "uint256"
        },
        {
          "indexed": true,
          "internalType": "address",
          "name": "owner",
          "type": "address"
        },
        {
          "indexed": false,
          "internalType": "string",
          "name": "memoryRoot",
          "type": "string"
        }
      ],
      "name": "AgentInitialized",
      "type": "event"
    },
    {
      "anonymous": false,
      "inputs": [
        {
          "indexed": true,
          "internalType": "uint256",
          "name": "tokenId",
          "type": "uint256"
        },
        {
          "indexed": false,
          "internalType": "string",
          "name": "newDataRoot",
          "type": "string"
        }
      ],
      "name": "AgentStateUpdated",
      "type": "event"
    },
    {
      "anonymous": false,
      "inputs": [
        {
          "indexed": true,
          "internalType": "address",
          "name": "owner",
          "type": "address"
        },
        {
          "indexed": true,
          "internalType": "address",
          "name": "approved",
          "type": "address"
        },
        {
          "indexed": true,
          "internalType": "uint256",
          "name": "tokenId",
          "type": "uint256"
        }
      ],
      "name": "Approval",
      "type": "event"
    },
    {
      "anonymous": false,
      "inputs": [
        {
          "indexed": true,
          "internalType": "address",
          "name": "owner",
          "type": "address"
        },
        {
          "indexed": true,
          "internalType": "address",
          "name": "operator",
          "type": "address"
        },
        {
          "indexed": false,
          "internalType": "bool",
          "name": "approved",
          "type": "bool"
        }
      ],
      "name": "ApprovalForAll",
      "type": "event"
    },
    {
      "anonymous": false,
      "inputs": [
        {
          "indexed": false,
          "internalType": "uint256",
          "name": "_fromTokenId",
          "type": "uint256"
        },
        {
          "indexed": false,
          "internalType": "uint256",
          "name": "_toTokenId",
          "type": "uint256"
        }
      ],
      "name": "BatchMetadataUpdate",
      "type": "event"
    },
    {
      "anonymous": false,
      "inputs": [
        {
          "indexed": true,
          "internalType": "uint256",
          "name": "tokenId",
          "type": "uint256"
        },
        {
          "indexed": false,
          "internalType": "string",
          "name": "propertyId",
          "type": "string"
        },
        {
          "indexed": false,
          "internalType": "uint256",
          "name": "score",
          "type": "uint256"
        },
        {
          "indexed": false,
          "internalType": "uint256",
          "name": "timestamp",
          "type": "uint256"
        },
        {
          "indexed": false,
          "internalType": "string",
          "name": "dataRoot",
          "type": "string"
        }
      ],
      "name": "DecisionLogged",
      "type": "event"
    },
    {
      "anonymous": false,
      "inputs": [
        {
          "indexed": false,
          "internalType": "uint256",
          "name": "_tokenId",
          "type": "uint256"
        }
      ],
      "name": "MetadataUpdate",
      "type": "event"
    },
    {
      "anonymous": false,
      "inputs": [
        {
          "indexed": true,
          "internalType": "address",
          "name": "previousOwner",
          "type": "address"
        },
        {
          "indexed": true,
          "internalType": "address",
          "name": "newOwner",
          "type": "address"
        }
      ],
      "name": "OwnershipTransferred",
      "type": "event"
    },
    {
      "anonymous": false,
      "inputs": [
        {
          "indexed": true,
          "internalType": "address",
          "name": "from",
          "type": "address"
        },
        {
          "indexed": true,
          "internalType": "address",
          "name": "to",
          "type": "address"
        },
        {
          "indexed": true,
          "internalType": "uint256",
          "name": "tokenId",
          "type": "uint256"
        }
      ],
      "name": "Transfer",
      "type": "event"
    },
    {
      "inputs": [
        {
          "internalType": "uint256",
          "name": "",
          "type": "uint256"
        }
      ],
      "name": "agentMemoryRoot",
      "outputs": [
        {
          "internalType": "string",
          "name": "",
          "type": "string"
        }
      ],
      "stateMutability": "view",
      "type": "function"
    },
    {
      "inputs": [
        {
          "internalType": "address",
          "name": "to",
          "type": "address"
        },
        {
          "internalType": "uint256",
          "name": "tokenId",
          "type": "uint256"
        }
      ],
      "name": "approve",
      "outputs": [],
      "stateMutability": "nonpayable",
      "type": "function"
    },
    {
      "inputs": [
        {
          "internalType": "address",
          "name": "owner",
          "type": "address"
        }
      ],
      "name": "balanceOf",
      "outputs": [
        {
          "internalType": "uint256",
          "name": "",
          "type": "uint256"
        }
      ],
      "stateMutability": "view",
      "type": "function"
    },
    {
      "inputs": [
        {
          "internalType": "uint256",
          "name": "tokenId",
          "type": "uint256"
        }
      ],
      "name": "getApproved",
      "outputs": [
        {
          "internalType": "address",
          "name": "",
          "type": "address"
        }
      ],
      "stateMutability": "view",
      "type": "function"
    },
    {
      "inputs": [
        {
          "internalType": "address",
          "name": "owner",
          "type": "address"
        },
        {
          "internalType": "string",
          "name": "initialMemoryRoot",
          "type": "string"
        }
      ],
      "name": "initializeAgent",
      "outputs": [
        {
          "internalType": "uint256",
          "name": "",
          "type": "uint256"
        }
      ],
      "stateMutability": "nonpayable",
      "type": "function"
    },
    {
      "inputs": [
        {
          "internalType": "address",
          "name": "owner",
          "type": "address"
        },
        {
          "internalType": "address",
          "name": "operator",
          "type": "address"
        }
      ],
      "name": "isApprovedForAll",
      "outputs": [
        {
          "internalType": "bool",
          "name": "",
          "type": "bool"
        }
      ],
      "stateMutability": "view",
      "type": "function"
    },
    {
      "inputs": [
        {
          "internalType": "uint256",
          "name": "tokenId",
          "type": "uint256"
        },
        {
          "internalType": "string",
          "name": "propertyId",
          "type": "string"
        },
        {
          "internalType": "uint256",
          "name": "score",
          "type": "uint256"
        },
        {
          "internalType": "string",
          "name": "dataRoot",
          "type": "string"
        }
      ],
      "name": "logDecision",
      "outputs": [],
      "stateMutability": "nonpayable",
      "type": "function"
    },
    {
      "inputs": [],
      "name": "name",
      "outputs": [
        {
          "internalType": "string",
          "name": "",
          "type": "string"
        }
      ],
      "stateMutability": "view",
      "type": "function"
    },
    {
      "inputs": [],
      "name": "owner",
      "outputs": [
        {
          "internalType": "address",
          "name": "",
          "type": "address"
        }
      ],
      "stateMutability": "view",
      "type": "function"
    },
    {
      "inputs": [
        {
          "internalType": "uint256",
          "name": "tokenId",
          "type": "uint256"
        }
      ],
      "name": "ownerOf",
      "outputs": [
        {
          "internalType": "address",
          "name": "",
          "type": "address"
        }
      ],
      "stateMutability": "view",
      "type": "function"
    },
    {
      "inputs": [],
      "name": "renounceOwnership",
      "outputs": [],
      "stateMutability": "nonpayable",
      "type": "function"
    },
    {
      "inputs": [
        {
          "internalType": "address",
          "name": "from",
          "type": "address"
        },
        {
          "internalType": "address",
          "name": "to",
          "type": "address"
        },
        {
          "internalType": "uint256",
          "name": "tokenId",
          "type": "uint256"
        }
      ],
      "name": "safeTransferFrom",
      "outputs": [],
      "stateMutability": "nonpayable",
      "type": "function"
    },
    {
      "inputs": [
        {
          "internalType": "address",
          "name": "from",
          "type": "address"
        },
        {
          "internalType": "address",
          "name": "to",
          "type": "address"
        },
        {
          "internalType": "uint256",
          "name": "tokenId",
          "type": "uint256"
        },
        {
          "internalType": "bytes",
          "name": "data",
          "type": "bytes"
        }
      ],
      "name": "safeTransferFrom",
      "outputs": [],
      "stateMutability": "nonpayable",
      "type": "function"
    },
    {
      "inputs": [
        {
          "internalType": "address",
          "name": "operator",
          "type": "address"
        },
        {
          "internalType": "bool",
          "name": "approved",
          "type": "bool"
        }
      ],
      "name": "setApprovalForAll",
      "outputs": [],
      "stateMutability": "nonpayable",
      "type": "function"
    },
    {
      "inputs": [
        {
          "internalType": "bytes4",
          "name": "interfaceId",
          "type": "bytes4"
        }
      ],
      "name": "supportsInterface",
      "outputs": [
        {
          "internalType": "bool",
          "name": "",
          "type": "bool"
        }
      ],
      "stateMutability": "view",
      "type": "function"
    },
    {
      "inputs": [],
      "name": "symbol",
      "outputs": [
        {
          "internalType": "string",
          "name": "",
          "type": "string"
        }
      ],
      "stateMutability": "view",
      "type": "function"
    },
    {
      "inputs": [
        {
          "internalType": "uint256",
          "name": "tokenId",
          "type": "uint256"
        }
      ],
      "name": "tokenURI",
      "outputs": [
        {
          "internalType": "string",
          "name": "",
          "type": "string"
        }
      ],
      "stateMutability": "view",
      "type": "function"
    },
    {
      "inputs": [
        {
          "internalType": "address",
          "name": "from",
          "type": "address"
        },
        {
          "internalType": "address",
          "name": "to",
          "type": "address"
        },
        {
          "internalType": "uint256",
          "name": "tokenId",
          "type": "uint256"
        }
      ],
      "name": "transferFrom",
      "outputs": [],
      "stateMutability": "nonpayable",
      "type": "function"
    },
    {
      "inputs": [
        {
          "internalType": "address",
          "name": "newOwner",
          "type": "address"
        }
      ],
      "name": "transferOwnership",
      "outputs": [],
      "stateMutability": "nonpayable",
      "type": "function"
    },
    {
      "inputs": [
        {
          "internalType": "uint256",
          "name": "tokenId",
          "type": "uint256"
        },
        {
          "internalType": "string",
          "name": "newDataRoot",
          "type": "string"
        }
      ],
      "name": "updateAgentState",
      "outputs": [],
      "stateMutability": "nonpayable",
      "type": "function"
    },
    {
      "inputs": [
        {
          "internalType": "uint256",
          "name": "tokenId",
          "type": "uint256"
        },
        {
          "internalType": "string",
          "name": "rootToVerify",
          "type": "string"
        }
      ],
      "name": "verifyAgentState",
      "outputs": [
        {
          "internalType": "bool",
          "name": "",
          "type": "bool"
        }
      ],
      "stateMutability": "view",
      "type": "function"
    }
  ],
  "bytecode": "0x608060405234801562000010575f80fd5b50336040518060400160405280600e81526020016d14d958dd0e081052481059d95b9d60921b8152506040518060400160405280600381526020016253384160e81b815250815f9081620000659190620001a6565b506001620000748282620001a6565b5050506001600160a01b038116620000a557604051631e4fbdf760e01b81525f600482015260240160405180910390fd5b620000b081620000b7565b5062000272565b600780546001600160a01b038381166001600160a01b0319831681179093556040519116919082907f8be0079c531659141344cd1fd0a4f28419497f9722a3daafe3b4186f6b6457e0905f90a35050565b634e487b7160e01b5f52604160045260245ffd5b600181811c908216806200013157607f821691505b6020821081036200015057634e487b7160e01b5f52602260045260245ffd5b50919050565b601f821115620001a157805f5260205f20601f840160051c810160208510156200017d5750805b601f840160051c820191505b818110156200019e575f815560010162000189565b50505b505050565b81516001600160401b03811115620001c257620001c262000108565b620001da81620001d384546200011c565b8462000156565b602080601f83116001811462000210575f8415620001f85750858301515b5f19600386901b1c1916600185901b1785556200026a565b5f85815260208120601f198616915b8281101562000240578886015182559484019460019091019084016200021f565b50858210156200025e57878501515f19600388901b60f8161c191681555b505060018460011b0185555b505050505050565b61189080620002805f395ff3fe608060405234801561000f575f80fd5b5060043610610132575f3560e01c806395d89b41116100b4578063c0a3565311610079578063c0a356531461027a578063c87b56dd1461028d578063cbcd793a146102a0578063e4d365b8146102b3578063e985e9c5146102c6578063f2fde38b146102d9575f80fd5b806395d89b4114610226578063a22cb4651461022e578063aa64146914610241578063add90ec014610254578063b88d4fde14610267575f80fd5b806342842e0e116100fa57806342842e0e146101c65780636352211e146101d957806370a08231146101ec578063715018a61461020d5780638da5cb5b14610215575f80fd5b806301ffc9a71461013657806306fdde031461015e578063081812fc14610173578063095ea7b31461019e57806323b872dd146101b3575b5f80fd5b61014961014436600461119e565b6102ec565b60405190151581526020015b60405180910390f35b610166610316565b6040516101559190611206565b610186610181366004611218565b6103a5565b6040516001600160a01b039091168152602001610155565b6101b16101ac36600461124a565b6103cc565b005b6101b16101c1366004611272565b6103db565b6101b16101d4366004611272565b610469565b6101866101e7366004611218565b610488565b6101ff6101fa3660046112ab565b610492565b604051908152602001610155565b6101b16104d7565b6007546001600160a01b0316610186565b6101666104ea565b6101b161023c3660046112c4565b6104f9565b6101ff61024f3660046113a2565b610504565b6101496102623660046113ed565b610587565b6101b161027536600461141b565b6105e9565b6101b16102883660046114d7565b610601565b61016661029b366004611218565b6106af565b6101666102ae366004611218565b610730565b6101b16102c13660046113ed565b6107c7565b6101496102d4366004611554565b61088b565b6101b16102e73660046112ab565b6108b8565b5f6001600160e01b03198216632483248360e11b14806103105750610310826108f5565b92915050565b60605f805461032490611585565b80601f016020809104026020016040519081016040528092919081815260200182805461035090611585565b801561039b5780601f106103725761010080835404028352916020019161039b565b820191905f5260205f20905b81548152906001019060200180831161037e57829003601f168201915b5050505050905090565b5f6103af82610944565b505f828152600460205260409020546001600160a01b0316610310565b6103d782823361097c565b5050565b6001600160a01b03821661040957604051633250574960e11b81525f60048201526024015b60405180910390fd5b5f610415838333610989565b9050836001600160a01b0316816001600160a01b031614610463576040516364283d7b60e01b81526001600160a01b0380861660048301526024820184905282166044820152606401610400565b50505050565b61048383838360405180602001604052805f8152506105e9565b505050565b5f61031082610944565b5f6001600160a01b0382166104bc576040516322718ad960e21b81525f6004820152602401610400565b506001600160a01b03165f9081526003602052604090205490565b6104df610a7b565b6104e85f610aa8565b565b60606001805461032490611585565b6103d7338383610af9565b600880545f9182610514836115bd565b90915550506008546105268482610bc0565b5f81815260096020526040902061053d8482611625565b50836001600160a01b0316817f40e9647192039d6f73a3ea02ccd9d619590b85820a4233d0991488a519c150a7856040516105789190611206565b60405180910390a39392505050565b5f8160405160200161059991906116e1565b60408051601f1981840301815282825280516020918201205f878152600983529290922091926105ca9291016116fc565b6040516020818303038152906040528051906020012014905092915050565b6105f48484846103db565b6104633385858585610c21565b5f61060b87610488565b9050610618813389610d49565b6106645760405162461bcd60e51b815260206004820152601e60248201527f4e6f7420617574686f72697a656420746f206c6f67206465636973696f6e00006044820152606401610400565b867f4c506b73da53d54d46e7ffe7e5a1e0d58b97ca3275ac087e9a2a5c2ea0cfe13187878742888860405161069e96959493929190611796565b60405180910390a250505050505050565b60606106ba82610944565b505f6106d060408051602081019091525f815290565b90505f6106dc84610daa565b905081515f036106ed579392505050565b80511561071f5781816040516020016107079291906117d5565b60405160208183030381529060405292505050919050565b61072884610e49565b949350505050565b60096020525f90815260409020805461074890611585565b80601f016020809104026020016040519081016040528092919081815260200182805461077490611585565b80156107bf5780601f10610796576101008083540402835291602001916107bf565b820191905f5260205f20905b8154815290600101906020018083116107a257829003601f168201915b505050505081565b5f6107d183610488565b90506107de813385610d49565b6108365760405162461bcd60e51b8152602060048201526024808201527f4e6f7420617574686f72697a656420746f20757064617465206167656e7420736044820152637461746560e01b6064820152608401610400565b5f83815260096020526040902061084d8382611625565b50827f6c847a282f2d7284007482fa3071ff42382ea24763a26db0fa84c9cbb6a794138360405161087e9190611206565b60405180910390a2505050565b6001600160a01b039182165f90815260056020908152604080832093909416825291909152205460ff1690565b6108c0610a7b565b6001600160a01b0381166108e957604051631e4fbdf760e01b81525f6004820152602401610400565b6108f281610aa8565b50565b5f6001600160e01b031982166380ac58cd60e01b148061092557506001600160e01b03198216635b5e139f60e01b145b8061031057506301ffc9a760e01b6001600160e01b0319831614610310565b5f818152600260205260408120546001600160a01b03168061031057604051637e27328960e01b815260048101849052602401610400565b6104838383836001610eba565b5f828152600260205260408120546001600160a01b03908116908316156109b5576109b5818486610fbe565b6001600160a01b038116156109ef576109d05f855f80610eba565b6001600160a01b0381165f90815260036020526040902080545f190190555b6001600160a01b03851615610a1d576001600160a01b0385165f908152600360205260409020805460010190555b5f8481526002602052604080822080546001600160a01b0319166001600160a01b0389811691821790925591518793918516917fddf252ad1be2c89b69c2b068fc378daa952ba7f163c4a11628f55a4df523b3ef91a4949350505050565b6007546001600160a01b031633146104e85760405163118cdaa760e01b8152336004820152602401610400565b600780546001600160a01b038381166001600160a01b0319831681179093556040519116919082907f8be0079c531659141344cd1fd0a4f28419497f9722a3daafe3b4186f6b6457e0905f90a35050565b6001600160a01b038316610b225760405163a9fbf51f60e01b81525f6004820152602401610400565b6001600160a01b038216610b5457604051630b61174360e31b81526001600160a01b0383166004820152602401610400565b6001600160a01b038381165f81815260056020908152604080832094871680845294825291829020805460ff191686151590811790915591519182527f17307eab39ab6107e8899845ad3d59bd9653f200f220920489ca2b5937696c31910160405180910390a3505050565b6001600160a01b038216610be957604051633250574960e11b81525f6004820152602401610400565b5f610bf583835f610989565b90506001600160a01b03811615610483576040516339e3563760e11b81525f6004820152602401610400565b6001600160a01b0383163b15610d4257604051630a85bd0160e11b81526001600160a01b0384169063150b7a0290610c63908890889087908790600401611803565b6020604051808303815f875af1925050508015610c9d575060408051601f3d908101601f19168201909252610c9a9181019061183f565b60015b610d04573d808015610cca576040519150601f19603f3d011682016040523d82523d5f602084013e610ccf565b606091505b5080515f03610cfc57604051633250574960e11b81526001600160a01b0385166004820152602401610400565b805160208201fd5b6001600160e01b03198116630a85bd0160e11b14610d4057604051633250574960e11b81526001600160a01b0385166004820152602401610400565b505b5050505050565b5f6001600160a01b038316158015906107285750826001600160a01b0316846001600160a01b03161480610d825750610d82848461088b565b806107285750505f908152600460205260409020546001600160a01b03908116911614919050565b5f818152600660205260409020805460609190610dc690611585565b80601f0160208091040260200160405190810160405280929190818152602001828054610df290611585565b8015610e3d5780601f10610e1457610100808354040283529160200191610e3d565b820191905f5260205f20905b815481529060010190602001808311610e2057829003601f168201915b50505050509050919050565b6060610e5482610944565b505f610e6a60408051602081019091525f815290565b90505f815111610e885760405180602001604052805f815250610eb3565b80610e9284611022565b604051602001610ea39291906117d5565b6040516020818303038152906040525b9392505050565b8080610ece57506001600160a01b03821615155b15610f8f575f610edd84610944565b90506001600160a01b03831615801590610f095750826001600160a01b0316816001600160a01b031614155b8015610f1c5750610f1a818461088b565b155b15610f455760405163a9fbf51f60e01b81526001600160a01b0384166004820152602401610400565b8115610f8d5783856001600160a01b0316826001600160a01b03167f8c5be1e5ebec7d5bd14f71427d1e84f3dd0314c0f7b2291e5b200ac8c7c3b92560405160405180910390a45b505b50505f90815260046020526040902080546001600160a01b0319166001600160a01b0392909216919091179055565b610fc9838383610d49565b610483576001600160a01b038316610ff757604051637e27328960e01b815260048101829052602401610400565b60405163177e802f60e01b81526001600160a01b038316600482015260248101829052604401610400565b60605f61102e836110b2565b60010190505f8167ffffffffffffffff81111561104d5761104d6112fd565b6040519080825280601f01601f191660200182016040528015611077576020820181803683370190505b5090508181016020015b5f19016f181899199a1a9b1b9c1cb0b131b232b360811b600a86061a8153600a850494508461108157509392505050565b5f8072184f03e93ff9f4daa797ed6e38ed64bf6a1f0160401b83106110f05772184f03e93ff9f4daa797ed6e38ed64bf6a1f0160401b830492506040015b6d04ee2d6d415b85acef8100000000831061111c576d04ee2d6d415b85acef8100000000830492506020015b662386f26fc10000831061113a57662386f26fc10000830492506010015b6305f5e1008310611152576305f5e100830492506008015b612710831061116657612710830492506004015b60648310611178576064830492506002015b600a83106103105760010192915050565b6001600160e01b0319811681146108f2575f80fd5b5f602082840312156111ae575f80fd5b8135610eb381611189565b5f5b838110156111d35781810151838201526020016111bb565b50505f910152565b5f81518084526111f28160208601602086016111b9565b601f01601f19169290920160200192915050565b602081525f610eb360208301846111db565b5f60208284031215611228575f80fd5b5035919050565b80356001600160a01b0381168114611245575f80fd5b919050565b5f806040838503121561125b575f80fd5b6112648361122f565b946020939093013593505050565b5f805f60608486031215611284575f80fd5b61128d8461122f565b925061129b6020850161122f565b9150604084013590509250925092565b5f602082840312156112bb575f80fd5b610eb38261122f565b5f80604083850312156112d5575f80fd5b6112de8361122f565b9150602083013580151581146112f2575f80fd5b809150509250929050565b634e487b7160e01b5f52604160045260245ffd5b5f67ffffffffffffffff8084111561132b5761132b6112fd565b604051601f8501601f19908116603f01168101908282118183101715611353576113536112fd565b8160405280935085815286868601111561136b575f80fd5b858560208301375f602087830101525050509392505050565b5f82601f830112611393575f80fd5b610eb383833560208501611311565b5f80604083850312156113b3575f80fd5b6113bc8361122f565b9150602083013567ffffffffffffffff8111156113d7575f80fd5b6113e385828601611384565b9150509250929050565b5f80604083850312156113fe575f80fd5b82359150602083013567ffffffffffffffff8111156113d7575f80fd5b5f805f806080858703121561142e575f80fd5b6114378561122f565b93506114456020860161122f565b925060408501359150606085013567ffffffffffffffff811115611467575f80fd5b8501601f81018713611477575f80fd5b61148687823560208401611311565b91505092959194509250565b5f8083601f8401126114a2575f80fd5b50813567ffffffffffffffff8111156114b9575f80fd5b6020830191508360208285010111156114d0575f80fd5b9250929050565b5f805f805f80608087890312156114ec575f80fd5b86359550602087013567ffffffffffffffff8082111561150a575f80fd5b6115168a838b01611492565b9097509550604089013594506060890135915080821115611535575f80fd5b5061154289828a01611492565b979a9699509497509295939492505050565b5f8060408385031215611565575f80fd5b61156e8361122f565b915061157c6020840161122f565b90509250929050565b600181811c9082168061159957607f821691505b6020821081036115b757634e487b7160e01b5f52602260045260245ffd5b50919050565b5f600182016115da57634e487b7160e01b5f52601160045260245ffd5b5060010190565b601f82111561048357805f5260205f20601f840160051c810160208510156116065750805b601f840160051c820191505b81811015610d42575f8155600101611612565b815167ffffffffffffffff81111561163f5761163f6112fd565b6116538161164d8454611585565b846115e1565b602080601f831160018114611686575f841561166f5750858301515b5f19600386901b1c1916600185901b178555610d40565b5f85815260208120601f198616915b828110156116b457888601518255948401946001909101908401611695565b50858210156116d157878501515f19600388901b60f8161c191681555b5050505050600190811b01905550565b5f82516116f28184602087016111b9565b9190910192915050565b5f80835461170981611585565b60018281168015611721576001811461173657611762565b60ff1984168752821515830287019450611762565b875f526020805f205f5b858110156117595781548a820152908401908201611740565b50505082870194505b50929695505050505050565b81835281816020850137505f828201602090810191909152601f909101601f19169091010190565b608081525f6117a960808301888a61176e565b86602084015285604084015282810360608401526117c881858761176e565b9998505050505050505050565b5f83516117e68184602088016111b9565b8351908301906117fa8183602088016111b9565b01949350505050565b6001600160a01b03858116825284166020820152604081018390526080606082018190525f90611835908301846111db565b9695505050505050565b5f6020828403121561184f575f80fd5b8151610eb38161118956fea2646970667358221220990f32ebb93a22dc883a7d38f27b8fb8479ef4a5cb87b1fc294f2a4c338db9a764736f6c63430008180033",
  "linkReferences": {},
  "deployedLinkReferences": {}
}