{
  "_format": "hh-sol-artifact-1",
  "contractName": "Sect8AgentManager",
  "sourceName": "contracts/Sect8AgentManager.sol",
  "abi": [
    {
      "inputs": [],
      "stateMutability": "nonpayable",
      "type": "constructor"
    },
    {
      "anonymous": false,
      "inputs": [
        {
          "indexed": true,
          "internalType": "uint256",
          "name": "tokenId",
          "type": "uint256"
        },
        {
          "indexed": true,
          "internalType": "address",
          "name": "owner",
          "type": "address"
        },
        {
          "indexed": false,
          "internalType": "string",
          "name": "memoryRoot",
          "type": "string"
        }
      ],
      "name": "AgentInitialized",
      "type": "event"
    },
    {
      "anonymous": false,
      "inputs": [
        {
          "indexed": true,
          "internalType": "uint256",
          "name": "tokenId",
          "type": "uint256"
        },
        {
          "indexed": false,
          "internalType": "string",
          "name": "newDataRoot",
          "type": "string"
        }
      ],
      "name": "AgentStateUpdated",
      "type": "event"
    },
    {
      "anonymous": false,
      "inputs": [
        {
          "indexed": true,
          "internalType": "address",
          "name": "owner",
          "type": "address"
        },
        {
          "indexed": true,
          "internalType": "address",
          "name": "approved",
          "type": "address"
        },
        {
          "indexed": true,
          "internalType": "uint256",
          "name": "tokenId",
          "type": "uint256"
        }
      ],
      "name": "Approval",
      "type": "event"
    },
    {
      "anonymous": false,
      "inputs": [
        {
          "indexed": true,
          "internalType": "address",
          "name": "owner",
          "type": "address"
        },
        {
          "indexed": true,
          "internalType": "address",
          "name": "operator",
          "type": "address"
        },
        {
          "indexed": false,
          "internalType": "bool",
          "name": "approved",
          "type": "bool"
        }
      ],
      "name": "ApprovalForAll",
      "type": "event"
    },
    {
      "anonymous": false,
      "inputs": [
        {
          "indexed": false,
          "internalType": "uint256",
          "name": "_fromTokenId",
          "type": "uint256"
        },
        {
          "indexed": false,
          "internalType": "uint256",
          "name": "_toTokenId",
          "type": "uint256"
        }
      ],
      "name": "BatchMetadataUpdate",
      "type": "event"
    },
    {
      "anonymous": false,
      "inputs": [
        {
          "indexed": true,
          "internalType": "uint256",
          "name": "tokenId",
          "type": "uint256"
        },
        {
          "indexed": false,
          "internalType": "string",
          "name": "propertyId",
          "type": "string"
        },
        {
          "indexed": false,
          "internalType": "uint256",
          "name": "score",
          "type": "uint256"
        },
        {
          "indexed": false,
          "internalType": "uint256",
          "name": "timestamp",
          "type": "uint256"
        },
        {
          "indexed": false,
          "internalType": "string",
          "name": "dataRoot",
          "type": "string"
        }
      ],
      "name": "DecisionLogged",
      "type": "event"
    },
    {
      "anonymous": false,
      "inputs": [
        {
          "indexed": false,
          "internalType": "uint256",
          "name": "_tokenId",
          "type": "uint256"
        }
      ],
      "name": "MetadataUpdate",
      "type": "event"
    },
    {
      "anonymous": false,
      "inputs": [
        {
          "indexed": true,
          "internalType": "address",
          "name": "previousOwner",
          "type": "address"
        },
        {
          "indexed": true,
          "internalType": "address",
          "name": "newOwner",
          "type": "address"
        }
      ],
      "name": "OwnershipTransferred",
      "type": "event"
    },
    {
      "anonymous": false,
      "inputs": [
        {
          "indexed": true,
          "internalType": "address",
          "name": "from",
          "type": "address"
        },
        {
          "indexed": true,
          "internalType": "address",
          "name": "to",
          "type": "address"
        },
        {
          "indexed": true,
          "internalType": "uint256",
          "name": "tokenId",
          "type": "uint256"
        }
      ],
      "name": "Transfer",
      "type": "event"
    },
    {
      "inputs": [
        {
          "internalType": "uint256",
          "name": "",
          "type": "uint256"
        }
      ],
      "name": "agentMemoryRoot",
      "outputs": [
        {
          "internalType": "string",
          "name": "",
          "type": "string"
        }
      ],
      "stateMutability": "view",
      "type": "function"
    },
    {
      "inputs": [
        {
          "internalType": "address",
          "name": "to",
          "type": "address"
        },
        {
          "internalType": "uint256",
          "name": "tokenId",
          "type": "uint256"
        }
      ],
      "name": "approve",
      "outputs": [],
      "stateMutability": "nonpayable",
      "type": "function"
    },
    {
      "inputs": [
        {
          "internalType": "address",
          "name": "owner",
          "type": "address"
        }
      ],
      "name": "balanceOf",
      "outputs": [
        {
          "internalType": "uint256",
          "name": "",
          "type": "uint256"
        }
      ],
      "stateMutability": "view",
      "type": "function"
    },
    {
      "inputs": [
        {
          "internalType": "uint256",
          "name": "tokenId",
          "type": "uint256"
        }
      ],
      "name": "getApproved",
      "outputs": [
        {
          "internalType": "address",
          "name": "",
          "type": "address"
        }
      ],
      "stateMutability": "view",
      "type": "function"
    },
    {
      "inputs": [
        {
          "internalType": "address",
          "name": "owner",
          "type": "address"
        },
        {
          "internalType": "string",
          "name": "initialMemoryRoot",
          "type": "string"
        }
      ],
      "name": "initializeAgent",
      "outputs": [
        {
          "internalType": "uint256",
          "name": "",
          "type": "uint256"
        }
      ],
      "stateMutability": "nonpayable",
      "type": "function"
    },
    {
      "inputs": [
        {
          "internalType": "address",
          "name": "owner",
          "type": "address"
        },
        {
          "internalType": "address",
          "name": "operator",
          "type": "address"
        }
      ],
      "name": "isApprovedForAll",
      "outputs": [
        {
          "internalType": "bool",
          "name": "",
          "type": "bool"
        }
      ],
      "stateMutability": "view",
      "type": "function"
    },
    {
      "inputs": [
        {
          "internalType": "uint256",
          "name": "tokenId",
          "type": "uint256"
        },
        {
          "internalType": "string",
          "name": "propertyId",
          "type": "string"
        },
        {
          "internalType": "uint256",
          "name": "score",
          "type": "uint256"
        },
        {
          "internalType": "string",
          "name": "dataRoot",
          "type": "string"
        }
      ],
      "name": "logDecision",
      "outputs": [],
      "stateMutability": "nonpayable",
      "type": "function"
    },
    {
      "inputs": [],
      "name": "name",
      "outputs": [
        {
          "internalType": "string",
          "name": "",
          "type": "string"
        }
      ],
      "stateMutability": "view",
      "type": "function"
    },
    {
      "inputs": [],
      "name": "owner",
      "outputs": [
        {
          "internalType": "address",
          "name": "",
          "type": "address"
        }
      ],
      "stateMutability": "view",
      "type": "function"
    },
    {
      "inputs": [
        {
          "internalType": "uint256",
          "name": "tokenId",
          "type": "uint256"
        }
      ],
      "name": "ownerOf",
      "outputs": [
        {
          "internalType": "address",
          "name": "",
          "type": "address"
        }
      ],
      "stateMutability": "view",
      "type": "function"
    },
    {
      "inputs": [],
      "name": "renounceOwnership",
      "outputs": [],
      "stateMutability": "nonpayable",
      "type": "function"
    },
    {
      "inputs": [
        {
          "internalType": "address",
          "name": "from",
          "type": "address"
        },
        {
          "internalType": "address",
          "name": "to",
          "type": "address"
        },
        {
          "internalType": "uint256",
          "name": "tokenId",
          "type": "uint256"
        }
      ],
      "name": "safeTransferFrom",
      "outputs": [],
      "stateMutability": "nonpayable",
      "type": "function"
    },
    {
      "inputs": [
        {
          "internalType": "address",
          "name": "from",
          "type": "address"
        },
        {
          "internalType": "address",
          "name": "to",
          "type": "address"
        },
        {
          "internalType": "uint256",
          "name": "tokenId",
          "type": "uint256"
        },
        {
          "internalType": "bytes",
          "name": "data",
          "type": "bytes"
        }
      ],
      "name": "safeTransferFrom",
      "outputs": [],
      "stateMutability": "nonpayable",
      "type": "function"
    },
    {
      "inputs": [
        {
          "internalType": "address",
          "name": "operator",
          "type": "address"
        },
        {
          "internalType": "bool",
          "name": "approved",
          "type": "bool"
        }
      ],
      "name": "setApprovalForAll",
      "outputs": [],
      "stateMutability": "nonpayable",
      "type": "function"
    },
    {
      "inputs": [
        {
          "internalType": "bytes4",
          "name": "interfaceId",
          "type": "bytes4"
        }
      ],
      "name": "supportsInterface",
      "outputs": [
        {
          "internalType": "bool",
          "name": "",
          "type": "bool"
        }
      ],
      "stateMutability": "view",
      "type": "function"
    },
    {
      "inputs": [],
      "name": "symbol",
      "outputs": [
        {
          "internalType": "string",
          "name": "",
          "type": "string"
        }
      ],
      "stateMutability": "view",
      "type": "function"
    },
    {
      "inputs": [
        {
          "internalType": "uint256",
          "name": "tokenId",
          "type": "uint256"
        }
      ],
      "name": "tokenURI",
      "outputs": [
        {
          "internalType": "string",
          "name": "",
          "type": "string"
        }
      ],
      "stateMutability": "view",
      "type": "function"
    },
    {
      "inputs": [
        {
          "internalType": "address",
          "name": "from",
          "type": "address"
        },
        {
          "internalType": "address",
          "name": "to",
          "type": "address"
        },
        {
          "internalType": "uint256",
          "name": "tokenId",
          "type": "uint256"
        }
      ],
      "name": "transferFrom",
      "outputs": [],
      "stateMutability": "nonpayable",
      "type": "function"
    },
    {
      "inputs": [
        {
          "internalType": "address",
          "name": "newOwner",
          "type": "address"
        }
      ],
      "name": "transferOwnership",
      "outputs": [],
      "stateMutability": "nonpayable",
      "type": "function"
    },
    {
      "inputs": [
        {
          "internalType": "uint256",
          "name": "tokenId",
          "type": "uint256"
        },
        {
          "internalType": "string",
          "name": "newDataRoot",
          "type": "string"
        }
      ],
      "name": "updateAgentState",
      "outputs": [],
      "stateMutability": "nonpayable",
      "type": "function"
    },
    {
      "inputs": [
        {
          "internalType": "uint256",
          "name": "tokenId",
          "type": "uint256"
        },
        {
          "internalType": "string",
          "name": "rootToVerify",
          "type": "string"
        }
      ],
      "name": "verifyAgentState",
      "outputs": [
        {
          "internalType": "bool",
          "name": "",
          "type": "bool"
        }
      ],
      "stateMutability": "view",
      "type": "function"
    }
  ],
  "bytecode": "0x60806040523480156200001157600080fd5b506040518060400160405280600e81526020016d14d958dd0e081052481059d95b9d60921b8152506040518060400160405280600381526020016253384160e81b815250816000908162000066919062000195565b50600162000075828262000195565b505050620000926200008c6200009860201b60201c565b6200009c565b62000261565b3390565b600780546001600160a01b038381166001600160a01b0319831681179093556040519116919082907f8be0079c531659141344cd1fd0a4f28419497f9722a3daafe3b4186f6b6457e090600090a35050565b634e487b7160e01b600052604160045260246000fd5b600181811c908216806200011957607f821691505b6020821081036200013a57634e487b7160e01b600052602260045260246000fd5b50919050565b601f82111562000190576000816000526020600020601f850160051c810160208610156200016b5750805b601f850160051c820191505b818110156200018c5782815560010162000177565b5050505b505050565b81516001600160401b03811115620001b157620001b1620000ee565b620001c981620001c2845462000104565b8462000140565b602080601f831160018114620002015760008415620001e85750858301515b600019600386901b1c1916600185901b1785556200018c565b600085815260208120601f198616915b82811015620002325788860151825594840194600190910190840162000211565b5085821015620002515787850151600019600388901b60f8161c191681555b5050505050600190811b01905550565b611cc780620002716000396000f3fe608060405234801561001057600080fd5b50600436106101375760003560e01c806395d89b41116100b8578063c0a356531161007c578063c0a3565314610280578063c87b56dd14610293578063cbcd793a146102a6578063e4d365b8146102b9578063e985e9c5146102cc578063f2fde38b146102df57600080fd5b806395d89b411461022c578063a22cb46514610234578063aa64146914610247578063add90ec01461025a578063b88d4fde1461026d57600080fd5b806342842e0e116100ff57806342842e0e146101cc5780636352211e146101df57806370a08231146101f2578063715018a6146102135780638da5cb5b1461021b57600080fd5b806301ffc9a71461013c57806306fdde0314610164578063081812fc14610179578063095ea7b3146101a457806323b872dd146101b9575b600080fd5b61014f61014a3660046114a0565b6102f2565b60405190151581526020015b60405180910390f35b61016c61031d565b60405161015b919061150d565b61018c610187366004611520565b6103af565b6040516001600160a01b03909116815260200161015b565b6101b76101b2366004611555565b6103d6565b005b6101b76101c736600461157f565b6104f0565b6101b76101da36600461157f565b610521565b61018c6101ed366004611520565b61053c565b6102056102003660046115bb565b61059c565b60405190815260200161015b565b6101b7610622565b6007546001600160a01b031661018c565b61016c610636565b6101b76102423660046115d6565b610645565b6102056102553660046116be565b610654565b61014f61026836600461170c565b6106d9565b6101b761027b36600461173d565b61073d565b6101b761028e366004611802565b610775565b61016c6102a1366004611520565b610850565b61016c6102b4366004611520565b610960565b6101b76102c736600461170c565b6109fa565b61014f6102da366004611885565b610aec565b6101b76102ed3660046115bb565b610b1a565b60006001600160e01b03198216632483248360e11b1480610317575061031782610b93565b92915050565b60606000805461032c906118b8565b80601f0160208091040260200160405190810160405280929190818152602001828054610358906118b8565b80156103a55780601f1061037a576101008083540402835291602001916103a5565b820191906000526020600020905b81548152906001019060200180831161038857829003601f168201915b5050505050905090565b60006103ba82610be3565b506000908152600460205260409020546001600160a01b031690565b60006103e18261053c565b9050806001600160a01b0316836001600160a01b0316036104535760405162461bcd60e51b815260206004820152602160248201527f4552433732313a20617070726f76616c20746f2063757272656e74206f776e656044820152603960f91b60648201526084015b60405180910390fd5b336001600160a01b038216148061046f575061046f8133610aec565b6104e15760405162461bcd60e51b815260206004820152603d60248201527f4552433732313a20617070726f76652063616c6c6572206973206e6f7420746f60448201527f6b656e206f776e6572206f7220617070726f76656420666f7220616c6c000000606482015260840161044a565b6104eb8383610c42565b505050565b6104fa3382610cb0565b6105165760405162461bcd60e51b815260040161044a906118f2565b6104eb838383610d0e565b6104eb8383836040518060200160405280600081525061073d565b6000818152600260205260408120546001600160a01b0316806103175760405162461bcd60e51b8152602060048201526018602482015277115490cdcc8c4e881a5b9d985b1a59081d1bdad95b88125160421b604482015260640161044a565b60006001600160a01b0382166106065760405162461bcd60e51b815260206004820152602960248201527f4552433732313a2061646472657373207a65726f206973206e6f7420612076616044820152683634b21037bbb732b960b91b606482015260840161044a565b506001600160a01b031660009081526003602052604090205490565b61062a610e72565b6106346000610ecc565b565b60606001805461032c906118b8565b610650338383610f1e565b5050565b60088054600091826106658361193f565b90915550506008546106778482610fec565b600081815260096020526040902061068f84826119b6565b50836001600160a01b0316817f40e9647192039d6f73a3ea02ccd9d619590b85820a4233d0991488a519c150a7856040516106ca919061150d565b60405180910390a39392505050565b6000816040516020016106ec9190611a76565b60408051601f19818403018152828252805160209182012060008781526009835292909220919261071e929101611a92565b6040516020818303038152906040528051906020012014905092915050565b6107473383610cb0565b6107635760405162461bcd60e51b815260040161044a906118f2565b61076f84848484611177565b50505050565b60006107808761053c565b9050336001600160a01b038216148061079e575061079e8133610aec565b806107b95750336107ae886103af565b6001600160a01b0316145b6108055760405162461bcd60e51b815260206004820152601e60248201527f4e6f7420617574686f72697a656420746f206c6f67206465636973696f6e0000604482015260640161044a565b867f4c506b73da53d54d46e7ffe7e5a1e0d58b97ca3275ac087e9a2a5c2ea0cfe13187878742888860405161083f96959493929190611b31565b60405180910390a250505050505050565b606061085b82610be3565b60008281526006602052604081208054610874906118b8565b80601f01602080910402602001604051908101604052809291908181526020018280546108a0906118b8565b80156108ed5780601f106108c2576101008083540402835291602001916108ed565b820191906000526020600020905b8154815290600101906020018083116108d057829003601f168201915b50505050509050600061090b60408051602081019091526000815290565b9050805160000361091d575092915050565b81511561094f578082604051602001610937929190611b71565b60405160208183030381529060405292505050919050565b610958846111aa565b949350505050565b60096020526000908152604090208054610979906118b8565b80601f01602080910402602001604051908101604052809291908181526020018280546109a5906118b8565b80156109f25780601f106109c7576101008083540402835291602001916109f2565b820191906000526020600020905b8154815290600101906020018083116109d557829003601f168201915b505050505081565b6000610a058361053c565b9050336001600160a01b0382161480610a235750610a238133610aec565b80610a3e575033610a33846103af565b6001600160a01b0316145b610a965760405162461bcd60e51b8152602060048201526024808201527f4e6f7420617574686f72697a656420746f20757064617465206167656e7420736044820152637461746560e01b606482015260840161044a565b6000838152600960205260409020610aae83826119b6565b50827f6c847a282f2d7284007482fa3071ff42382ea24763a26db0fa84c9cbb6a7941383604051610adf919061150d565b60405180910390a2505050565b6001600160a01b03918216600090815260056020908152604080832093909416825291909152205460ff1690565b610b22610e72565b6001600160a01b038116610b875760405162461bcd60e51b815260206004820152602660248201527f4f776e61626c653a206e6577206f776e657220697320746865207a65726f206160448201526564647265737360d01b606482015260840161044a565b610b9081610ecc565b50565b60006001600160e01b031982166380ac58cd60e01b1480610bc457506001600160e01b03198216635b5e139f60e01b145b8061031757506301ffc9a760e01b6001600160e01b0319831614610317565b6000818152600260205260409020546001600160a01b0316610b905760405162461bcd60e51b8152602060048201526018602482015277115490cdcc8c4e881a5b9d985b1a59081d1bdad95b88125160421b604482015260640161044a565b600081815260046020526040902080546001600160a01b0319166001600160a01b0384169081179091558190610c778261053c565b6001600160a01b03167f8c5be1e5ebec7d5bd14f71427d1e84f3dd0314c0f7b2291e5b200ac8c7c3b92560405160405180910390a45050565b600080610cbc8361053c565b9050806001600160a01b0316846001600160a01b03161480610ce35750610ce38185610aec565b806109585750836001600160a01b0316610cfc846103af565b6001600160a01b031614949350505050565b826001600160a01b0316610d218261053c565b6001600160a01b031614610d475760405162461bcd60e51b815260040161044a90611ba0565b6001600160a01b038216610da95760405162461bcd60e51b8152602060048201526024808201527f4552433732313a207472616e7366657220746f20746865207a65726f206164646044820152637265737360e01b606482015260840161044a565b826001600160a01b0316610dbc8261053c565b6001600160a01b031614610de25760405162461bcd60e51b815260040161044a90611ba0565b600081815260046020908152604080832080546001600160a01b03199081169091556001600160a01b0387811680865260038552838620805460001901905590871680865283862080546001019055868652600290945282852080549092168417909155905184937fddf252ad1be2c89b69c2b068fc378daa952ba7f163c4a11628f55a4df523b3ef91a4505050565b6007546001600160a01b031633146106345760405162461bcd60e51b815260206004820181905260248201527f4f776e61626c653a2063616c6c6572206973206e6f7420746865206f776e6572604482015260640161044a565b600780546001600160a01b038381166001600160a01b0319831681179093556040519116919082907f8be0079c531659141344cd1fd0a4f28419497f9722a3daafe3b4186f6b6457e090600090a35050565b816001600160a01b0316836001600160a01b031603610f7f5760405162461bcd60e51b815260206004820152601960248201527f4552433732313a20617070726f766520746f2063616c6c657200000000000000604482015260640161044a565b6001600160a01b03838116600081815260056020908152604080832094871680845294825291829020805460ff191686151590811790915591519182527f17307eab39ab6107e8899845ad3d59bd9653f200f220920489ca2b5937696c31910160405180910390a3505050565b6001600160a01b0382166110425760405162461bcd60e51b815260206004820181905260248201527f4552433732313a206d696e7420746f20746865207a65726f2061646472657373604482015260640161044a565b6000818152600260205260409020546001600160a01b0316156110a75760405162461bcd60e51b815260206004820152601c60248201527f4552433732313a20746f6b656e20616c7265616479206d696e74656400000000604482015260640161044a565b6000818152600260205260409020546001600160a01b03161561110c5760405162461bcd60e51b815260206004820152601c60248201527f4552433732313a20746f6b656e20616c7265616479206d696e74656400000000604482015260640161044a565b6001600160a01b038216600081815260036020908152604080832080546001019055848352600290915280822080546001600160a01b0319168417905551839291907fddf252ad1be2c89b69c2b068fc378daa952ba7f163c4a11628f55a4df523b3ef908290a45050565b611182848484610d0e565b61118e8484848461121e565b61076f5760405162461bcd60e51b815260040161044a90611be5565b60606111b582610be3565b60006111cc60408051602081019091526000815290565b905060008151116111ec5760405180602001604052806000815250611217565b806111f68461131f565b604051602001611207929190611b71565b6040516020818303038152906040525b9392505050565b60006001600160a01b0384163b1561131457604051630a85bd0160e11b81526001600160a01b0385169063150b7a0290611262903390899088908890600401611c37565b6020604051808303816000875af192505050801561129d575060408051601f3d908101601f1916820190925261129a91810190611c74565b60015b6112fa573d8080156112cb576040519150601f19603f3d011682016040523d82523d6000602084013e6112d0565b606091505b5080516000036112f25760405162461bcd60e51b815260040161044a90611be5565b805181602001fd5b6001600160e01b031916630a85bd0160e11b149050610958565b506001949350505050565b6060600061132c836113b2565b600101905060008167ffffffffffffffff81111561134c5761134c611612565b6040519080825280601f01601f191660200182016040528015611376576020820181803683370190505b5090508181016020015b600019016f181899199a1a9b1b9c1cb0b131b232b360811b600a86061a8153600a850494508461138057509392505050565b60008072184f03e93ff9f4daa797ed6e38ed64bf6a1f0160401b83106113f15772184f03e93ff9f4daa797ed6e38ed64bf6a1f0160401b830492506040015b6d04ee2d6d415b85acef8100000000831061141d576d04ee2d6d415b85acef8100000000830492506020015b662386f26fc10000831061143b57662386f26fc10000830492506010015b6305f5e1008310611453576305f5e100830492506008015b612710831061146757612710830492506004015b60648310611479576064830492506002015b600a83106103175760010192915050565b6001600160e01b031981168114610b9057600080fd5b6000602082840312156114b257600080fd5b81356112178161148a565b60005b838110156114d85781810151838201526020016114c0565b50506000910152565b600081518084526114f98160208601602086016114bd565b601f01601f19169290920160200192915050565b60208152600061121760208301846114e1565b60006020828403121561153257600080fd5b5035919050565b80356001600160a01b038116811461155057600080fd5b919050565b6000806040838503121561156857600080fd5b61157183611539565b946020939093013593505050565b60008060006060848603121561159457600080fd5b61159d84611539565b92506115ab60208501611539565b9150604084013590509250925092565b6000602082840312156115cd57600080fd5b61121782611539565b600080604083850312156115e957600080fd5b6115f283611539565b91506020830135801515811461160757600080fd5b809150509250929050565b634e487b7160e01b600052604160045260246000fd5b600067ffffffffffffffff8084111561164357611643611612565b604051601f8501601f19908116603f0116810190828211818310171561166b5761166b611612565b8160405280935085815286868601111561168457600080fd5b858560208301376000602087830101525050509392505050565b600082601f8301126116af57600080fd5b61121783833560208501611628565b600080604083850312156116d157600080fd5b6116da83611539565b9150602083013567ffffffffffffffff8111156116f657600080fd5b6117028582860161169e565b9150509250929050565b6000806040838503121561171f57600080fd5b82359150602083013567ffffffffffffffff8111156116f657600080fd5b6000806000806080858703121561175357600080fd5b61175c85611539565b935061176a60208601611539565b925060408501359150606085013567ffffffffffffffff81111561178d57600080fd5b8501601f8101871361179e57600080fd5b6117ad87823560208401611628565b91505092959194509250565b60008083601f8401126117cb57600080fd5b50813567ffffffffffffffff8111156117e357600080fd5b6020830191508360208285010111156117fb57600080fd5b9250929050565b6000806000806000806080878903121561181b57600080fd5b86359550602087013567ffffffffffffffff8082111561183a57600080fd5b6118468a838b016117b9565b909750955060408901359450606089013591508082111561186657600080fd5b5061187389828a016117b9565b979a9699509497509295939492505050565b6000806040838503121561189857600080fd5b6118a183611539565b91506118af60208401611539565b90509250929050565b600181811c908216806118cc57607f821691505b6020821081036118ec57634e487b7160e01b600052602260045260246000fd5b50919050565b6020808252602d908201527f4552433732313a2063616c6c6572206973206e6f7420746f6b656e206f776e6560408201526c1c881bdc88185c1c1c9bdd9959609a1b606082015260800190565b60006001820161195f57634e487b7160e01b600052601160045260246000fd5b5060010190565b601f8211156104eb576000816000526020600020601f850160051c8101602086101561198f5750805b601f850160051c820191505b818110156119ae5782815560010161199b565b505050505050565b815167ffffffffffffffff8111156119d0576119d0611612565b6119e4816119de84546118b8565b84611966565b602080601f831160018114611a195760008415611a015750858301515b600019600386901b1c1916600185901b1785556119ae565b600085815260208120601f198616915b82811015611a4857888601518255948401946001909101908401611a29565b5085821015611a665787850151600019600388901b60f8161c191681555b5050505050600190811b01905550565b60008251611a888184602087016114bd565b9190910192915050565b6000808354611aa0816118b8565b60018281168015611ab85760018114611acd57611afc565b60ff1984168752821515830287019450611afc565b8760005260208060002060005b85811015611af35781548a820152908401908201611ada565b50505082870194505b50929695505050505050565b81835281816020850137506000828201602090810191909152601f909101601f19169091010190565b608081526000611b4560808301888a611b08565b8660208401528560408401528281036060840152611b64818587611b08565b9998505050505050505050565b60008351611b838184602088016114bd565b835190830190611b978183602088016114bd565b01949350505050565b60208082526025908201527f4552433732313a207472616e736665722066726f6d20696e636f72726563742060408201526437bbb732b960d91b606082015260800190565b60208082526032908201527f4552433732313a207472616e7366657220746f206e6f6e20455243373231526560408201527131b2b4bb32b91034b6b83632b6b2b73a32b960711b606082015260800190565b6001600160a01b0385811682528416602082015260408101839052608060608201819052600090611c6a908301846114e1565b9695505050505050565b600060208284031215611c8657600080fd5b81516112178161148a56fea26469706673582212206934600694126e6c57192aaf5666da02323a1fb5fe2505c6904e1b3fe8baf1bf64736f6c63430008180033",
  "linkReferences": {},
  "deployedLinkReferences": {}
}