{
  "_format": "hh-sol-artifact-1",
  "contractName": "AgentNFT",
  "sourceName": "contracts/AgentNFT.sol",
  "abi": [
    {
      "inputs": [
        {
          "internalType": "string",
          "name": "name_",
          "type": "string"
        },
        {
          "internalType": "string",
          "name": "symbol_",
          "type": "string"
        }
      ],
      "stateMutability": "nonpayable",
      "type": "constructor"
    },
    {
      "inputs": [
        {
          "internalType": "address",
          "name": "sender",
          "type": "address"
        },
        {
          "internalType": "uint256",
          "name": "tokenId",
          "type": "uint256"
        },
        {
          "internalType": "address",
          "name": "owner",
          "type": "address"
        }
      ],
      "name": "ERC721IncorrectOwner",
      "type": "error"
    },
    {
      "inputs": [
        {
          "internalType": "address",
          "name": "operator",
          "type": "address"
        },
        {
          "internalType": "uint256",
          "name": "tokenId",
          "type": "uint256"
        }
      ],
      "name": "ERC721InsufficientApproval",
      "type": "error"
    },
    {
      "inputs": [
        {
          "internalType": "address",
          "name": "approver",
          "type": "address"
        }
      ],
      "name": "ERC721InvalidApprover",
      "type": "error"
    },
    {
      "inputs": [
        {
          "internalType": "address",
          "name": "operator",
          "type": "address"
        }
      ],
      "name": "ERC721InvalidOperator",
      "type": "error"
    },
    {
      "inputs": [
        {
          "internalType": "address",
          "name": "owner",
          "type": "address"
        }
      ],
      "name": "ERC721InvalidOwner",
      "type": "error"
    },
    {
      "inputs": [
        {
          "internalType": "address",
          "name": "receiver",
          "type": "address"
        }
      ],
      "name": "ERC721InvalidReceiver",
      "type": "error"
    },
    {
      "inputs": [
        {
          "internalType": "address",
          "name": "sender",
          "type": "address"
        }
      ],
      "name": "ERC721InvalidSender",
      "type": "error"
    },
    {
      "inputs": [
        {
          "internalType": "uint256",
          "name": "tokenId",
          "type": "uint256"
        }
      ],
      "name": "ERC721NonexistentToken",
      "type": "error"
    },
    {
      "inputs": [
        {
          "internalType": "address",
          "name": "owner",
          "type": "address"
        }
      ],
      "name": "OwnableInvalidOwner",
      "type": "error"
    },
    {
      "inputs": [
        {
          "internalType": "address",
          "name": "account",
          "type": "address"
        }
      ],
      "name": "OwnableUnauthorizedAccount",
      "type": "error"
    },
    {
      "anonymous": false,
      "inputs": [
        {
          "indexed": true,
          "internalType": "uint256",
          "name": "tokenId",
          "type": "uint256"
        },
        {
          "indexed": true,
          "internalType": "address",
          "name": "owner",
          "type": "address"
        },
        {
          "indexed": false,
          "internalType": "string",
          "name": "memoryRoot",
          "type": "string"
        }
      ],
      "name": "AgentInitialized",
      "type": "event"
    },
    {
      "anonymous": false,
      "inputs": [
        {
          "indexed": true,
          "internalType": "uint256",
          "name": "tokenId",
          "type": "uint256"
        },
        {
          "indexed": false,
          "internalType": "string",
          "name": "memoryRoot",
          "type": "string"
        }
      ],
      "name": "AgentStateUpdated",
      "type": "event"
    },
    {
      "anonymous": false,
      "inputs": [
        {
          "indexed": true,
          "internalType": "address",
          "name": "owner",
          "type": "address"
        },
        {
          "indexed": true,
          "internalType": "address",
          "name": "approved",
          "type": "address"
        },
        {
          "indexed": true,
          "internalType": "uint256",
          "name": "tokenId",
          "type": "uint256"
        }
      ],
      "name": "Approval",
      "type": "event"
    },
    {
      "anonymous": false,
      "inputs": [
        {
          "indexed": true,
          "internalType": "address",
          "name": "owner",
          "type": "address"
        },
        {
          "indexed": true,
          "internalType": "address",
          "name": "operator",
          "type": "address"
        },
        {
          "indexed": false,
          "internalType": "bool",
          "name": "approved",
          "type": "bool"
        }
      ],
      "name": "ApprovalForAll",
      "type": "event"
    },
    {
      "anonymous": false,
      "inputs": [
        {
          "indexed": true,
          "internalType": "address",
          "name": "previousOwner",
          "type": "address"
        },
        {
          "indexed": true,
          "internalType": "address",
          "name": "newOwner",
          "type": "address"
        }
      ],
      "name": "OwnershipTransferred",
      "type": "event"
    },
    {
      "anonymous": false,
      "inputs": [
        {
          "indexed": true,
          "internalType": "address",
          "name": "from",
          "type": "address"
        },
        {
          "indexed": true,
          "internalType": "address",
          "name": "to",
          "type": "address"
        },
        {
          "indexed": true,
          "internalType": "uint256",
          "name": "tokenId",
          "type": "uint256"
        }
      ],
      "name": "Transfer",
      "type": "event"
    },
    {
      "inputs": [
        {
          "internalType": "address",
          "name": "to",
          "type": "address"
        },
        {
          "internalType": "uint256",
          "name": "tokenId",
          "type": "uint256"
        }
      ],
      "name": "approve",
      "outputs": [],
      "stateMutability": "nonpayable",
      "type": "function"
    },
    {
      "inputs": [
        {
          "internalType": "address",
          "name": "owner",
          "type": "address"
        }
      ],
      "name": "balanceOf",
      "outputs": [
        {
          "internalType": "uint256",
          "name": "",
          "type": "uint256"
        }
      ],
      "stateMutability": "view",
      "type": "function"
    },
    {
      "inputs": [
        {
          "internalType": "uint256",
          "name": "tokenId",
          "type": "uint256"
        }
      ],
      "name": "getAgentMemoryRoot",
      "outputs": [
        {
          "internalType": "string",
          "name": "",
          "type": "string"
        }
      ],
      "stateMutability": "view",
      "type": "function"
    },
    {
      "inputs": [
        {
          "internalType": "uint256",
          "name": "tokenId",
          "type": "uint256"
        }
      ],
      "name": "getApproved",
      "outputs": [
        {
          "internalType": "address",
          "name": "",
          "type": "address"
        }
      ],
      "stateMutability": "view",
      "type": "function"
    },
    {
      "inputs": [
        {
          "internalType": "address",
          "name": "owner",
          "type": "address"
        },
        {
          "internalType": "address",
          "name": "operator",
          "type": "address"
        }
      ],
      "name": "isApprovedForAll",
      "outputs": [
        {
          "internalType": "bool",
          "name": "",
          "type": "bool"
        }
      ],
      "stateMutability": "view",
      "type": "function"
    },
    {
      "inputs": [
        {
          "internalType": "uint256",
          "name": "",
          "type": "uint256"
        }
      ],
      "name": "meta",
      "outputs": [
        {
          "internalType": "string",
          "name": "memoryRoot",
          "type": "string"
        },
        {
          "internalType": "string",
          "name": "encryptedURI",
          "type": "string"
        }
      ],
      "stateMutability": "view",
      "type": "function"
    },
    {
      "inputs": [
        {
          "internalType": "string",
          "name": "initialMemoryRoot",
          "type": "string"
        },
        {
          "internalType": "string",
          "name": "encryptedURI",
          "type": "string"
        }
      ],
      "name": "mintAgent",
      "outputs": [
        {
          "internalType": "uint256",
          "name": "",
          "type": "uint256"
        }
      ],
      "stateMutability": "nonpayable",
      "type": "function"
    },
    {
      "inputs": [],
      "name": "name",
      "outputs": [
        {
          "internalType": "string",
          "name": "",
          "type": "string"
        }
      ],
      "stateMutability": "view",
      "type": "function"
    },
    {
      "inputs": [],
      "name": "owner",
      "outputs": [
        {
          "internalType": "address",
          "name": "",
          "type": "address"
        }
      ],
      "stateMutability": "view",
      "type": "function"
    },
    {
      "inputs": [
        {
          "internalType": "uint256",
          "name": "tokenId",
          "type": "uint256"
        }
      ],
      "name": "ownerOf",
      "outputs": [
        {
          "internalType": "address",
          "name": "",
          "type": "address"
        }
      ],
      "stateMutability": "view",
      "type": "function"
    },
    {
      "inputs": [],
      "name": "renounceOwnership",
      "outputs": [],
      "stateMutability": "nonpayable",
      "type": "function"
    },
    {
      "inputs": [
        {
          "internalType": "address",
          "name": "from",
          "type": "address"
        },
        {
          "internalType": "address",
          "name": "to",
          "type": "address"
        },
        {
          "internalType": "uint256",
          "name": "tokenId",
          "type": "uint256"
        }
      ],
      "name": "safeTransferFrom",
      "outputs": [],
      "stateMutability": "nonpayable",
      "type": "function"
    },
    {
      "inputs": [
        {
          "internalType": "address",
          "name": "from",
          "type": "address"
        },
        {
          "internalType": "address",
          "name": "to",
          "type": "address"
        },
        {
          "internalType": "uint256",
          "name": "tokenId",
          "type": "uint256"
        },
        {
          "internalType": "bytes",
          "name": "data",
          "type": "bytes"
        }
      ],
      "name": "safeTransferFrom",
      "outputs": [],
      "stateMutability": "nonpayable",
      "type": "function"
    },
    {
      "inputs": [
        {
          "internalType": "address",
          "name": "operator",
          "type": "address"
        },
        {
          "internalType": "bool",
          "name": "approved",
          "type": "bool"
        }
      ],
      "name": "setApprovalForAll",
      "outputs": [],
      "stateMutability": "nonpayable",
      "type": "function"
    },
    {
      "inputs": [
        {
          "internalType": "bytes4",
          "name": "interfaceId",
          "type": "bytes4"
        }
      ],
      "name": "supportsInterface",
      "outputs": [
        {
          "internalType": "bool",
          "name": "",
          "type": "bool"
        }
      ],
      "stateMutability": "view",
      "type": "function"
    },
    {
      "inputs": [],
      "name": "symbol",
      "outputs": [
        {
          "internalType": "string",
          "name": "",
          "type": "string"
        }
      ],
      "stateMutability": "view",
      "type": "function"
    },
    {
      "inputs": [
        {
          "internalType": "uint256",
          "name": "tokenId",
          "type": "uint256"
        }
      ],
      "name": "tokenURI",
      "outputs": [
        {
          "internalType": "string",
          "name": "",
          "type": "string"
        }
      ],
      "stateMutability": "view",
      "type": "function"
    },
    {
      "inputs": [
        {
          "internalType": "address",
          "name": "from",
          "type": "address"
        },
        {
          "internalType": "address",
          "name": "to",
          "type": "address"
        },
        {
          "internalType": "uint256",
          "name": "tokenId",
          "type": "uint256"
        }
      ],
      "name": "transferFrom",
      "outputs": [],
      "stateMutability": "nonpayable",
      "type": "function"
    },
    {
      "inputs": [
        {
          "internalType": "address",
          "name": "newOwner",
          "type": "address"
        }
      ],
      "name": "transferOwnership",
      "outputs": [],
      "stateMutability": "nonpayable",
      "type": "function"
    },
    {
      "inputs": [
        {
          "internalType": "uint256",
          "name": "tokenId",
          "type": "uint256"
        },
        {
          "internalType": "string",
          "name": "newMemoryRoot",
          "type": "string"
        }
      ],
      "name": "updateAgentState",
      "outputs": [],
      "stateMutability": "nonpayable",
      "type": "function"
    }
  ],
  "bytecode": "0x6080604052600160075534801562000015575f80fd5b5060405162001a2638038062001a268339810160408190526200003891620001ae565b3382825f6200004883826200029e565b5060016200005782826200029e565b5050506001600160a01b0381166200008857604051631e4fbdf760e01b81525f600482015260240160405180910390fd5b62000093816200009c565b5050506200036a565b600680546001600160a01b038381166001600160a01b0319831681179093556040519116919082907f8be0079c531659141344cd1fd0a4f28419497f9722a3daafe3b4186f6b6457e0905f90a35050565b634e487b7160e01b5f52604160045260245ffd5b5f82601f83011262000111575f80fd5b81516001600160401b03808211156200012e576200012e620000ed565b604051601f8301601f19908116603f01168101908282118183101715620001595762000159620000ed565b816040528381526020925086602085880101111562000176575f80fd5b5f91505b838210156200019957858201830151818301840152908201906200017a565b5f602085830101528094505050505092915050565b5f8060408385031215620001c0575f80fd5b82516001600160401b0380821115620001d7575f80fd5b620001e58683870162000101565b93506020850151915080821115620001fb575f80fd5b506200020a8582860162000101565b9150509250929050565b600181811c908216806200022957607f821691505b6020821081036200024857634e487b7160e01b5f52602260045260245ffd5b50919050565b601f8211156200029957805f5260205f20601f840160051c81016020851015620002755750805b601f840160051c820191505b8181101562000296575f815560010162000281565b50505b505050565b81516001600160401b03811115620002ba57620002ba620000ed565b620002d281620002cb845462000214565b846200024e565b602080601f83116001811462000308575f8415620002f05750858301515b5f19600386901b1c1916600185901b17855562000362565b5f85815260208120601f198616915b82811015620003385788860151825594840194600190910190840162000317565b50858210156200035657878501515f19600388901b60f8161c191681555b505060018460011b0185555b505050505050565b6116ae80620003785f395ff3fe608060405234801561000f575f80fd5b5060043610610127575f3560e01c8063715018a6116100a9578063c87b56dd1161006e578063c87b56dd1461026f578063cd5cfdaf14610282578063e4d365b8146102a3578063e985e9c5146102b6578063f2fde38b146102c9575f80fd5b8063715018a6146102285780638da5cb5b1461023057806395d89b4114610241578063a22cb46514610249578063b88d4fde1461025c575f80fd5b806342842e0e116100ef57806342842e0e146101bb5780634ccffd50146101ce57806359ec20bc146101ef5780636352211e1461020257806370a0823114610215575f80fd5b806301ffc9a71461012b57806306fdde0314610153578063081812fc14610168578063095ea7b31461019357806323b872dd146101a8575b5f80fd5b61013e610139366004611124565b6102dc565b60405190151581526020015b60405180910390f35b61015b61032d565b60405161014a919061118c565b61017b61017636600461119e565b6103bc565b6040516001600160a01b03909116815260200161014a565b6101a66101a13660046111d0565b6103e3565b005b6101a66101b63660046111f8565b6103f2565b6101a66101c93660046111f8565b610480565b6101e16101dc3660046112d6565b61049f565b60405190815260200161014a565b61015b6101fd36600461119e565b610553565b61017b61021036600461119e565b6105f2565b6101e1610223366004611336565b6105fc565b6101a6610641565b6006546001600160a01b031661017b565b61015b610654565b6101a661025736600461134f565b610663565b6101a661026a366004611388565b61066e565b61015b61027d36600461119e565b610686565b61029561029036600461119e565b6106f7565b60405161014a9291906113ff565b6101a66102b136600461142c565b61081e565b61013e6102c4366004611466565b6108c0565b6101a66102d7366004611336565b6108ed565b5f6001600160e01b031982166380ac58cd60e01b148061030c57506001600160e01b03198216635b5e139f60e01b145b8061032757506301ffc9a760e01b6001600160e01b03198316145b92915050565b60605f805461033b90611497565b80601f016020809104026020016040519081016040528092919081815260200182805461036790611497565b80156103b25780601f10610389576101008083540402835291602001916103b2565b820191905f5260205f20905b81548152906001019060200180831161039557829003601f168201915b5050505050905090565b5f6103c68261092a565b505f828152600460205260409020546001600160a01b0316610327565b6103ee828233610962565b5050565b6001600160a01b03821661042057604051633250574960e11b81525f60048201526024015b60405180910390fd5b5f61042c83833361096f565b9050836001600160a01b0316816001600160a01b03161461047a576040516364283d7b60e01b81526001600160a01b0380861660048301526024820184905282166044820152606401610417565b50505050565b61049a83838360405180602001604052805f81525061066e565b505050565b600780545f91829190826104b2836114cf565b9190505590506104c23382610a61565b60408051808201825285815260208082018690525f848152600890915291909120815181906104f19082611537565b50602082015160018201906105069082611537565b50905050336001600160a01b0316817f40e9647192039d6f73a3ea02ccd9d619590b85820a4233d0991488a519c150a786604051610544919061118c565b60405180910390a39392505050565b5f81815260086020526040902080546060919061056f90611497565b80601f016020809104026020016040519081016040528092919081815260200182805461059b90611497565b80156105e65780601f106105bd576101008083540402835291602001916105e6565b820191905f5260205f20905b8154815290600101906020018083116105c957829003601f168201915b50505050509050919050565b5f6103278261092a565b5f6001600160a01b038216610626576040516322718ad960e21b81525f6004820152602401610417565b506001600160a01b03165f9081526003602052604090205490565b610649610a7a565b6106525f610aa7565b565b60606001805461033b90611497565b6103ee338383610af8565b6106798484846103f2565b61047a3385858585610bbf565b60606106918261092a565b505f6106a760408051602081019091525f815290565b90505f8151116106c55760405180602001604052805f8152506106f0565b806106cf84610ce7565b6040516020016106e09291906115f3565b6040516020818303038152906040525b9392505050565b60086020525f908152604090208054819061071190611497565b80601f016020809104026020016040519081016040528092919081815260200182805461073d90611497565b80156107885780601f1061075f57610100808354040283529160200191610788565b820191905f5260205f20905b81548152906001019060200180831161076b57829003601f168201915b50505050509080600101805461079d90611497565b80601f01602080910402602001604051908101604052809291908181526020018280546107c990611497565b80156108145780601f106107eb57610100808354040283529160200191610814565b820191905f5260205f20905b8154815290600101906020018083116107f757829003601f168201915b5050505050905082565b6108283383610d77565b61086c5760405162461bcd60e51b81526020600482015260156024820152741b9bdd081bdddb995c881bdc88185c1c1c9bdd9959605a1b6044820152606401610417565b5f8281526008602052604090206108838282611537565b50817f6c847a282f2d7284007482fa3071ff42382ea24763a26db0fa84c9cbb6a79413826040516108b4919061118c565b60405180910390a25050565b6001600160a01b039182165f90815260056020908152604080832093909416825291909152205460ff1690565b6108f5610a7a565b6001600160a01b03811661091e57604051631e4fbdf760e01b81525f6004820152602401610417565b61092781610aa7565b50565b5f818152600260205260408120546001600160a01b03168061032757604051637e27328960e01b815260048101849052602401610417565b61049a8383836001610df4565b5f828152600260205260408120546001600160a01b039081169083161561099b5761099b818486610ef8565b6001600160a01b038116156109d5576109b65f855f80610df4565b6001600160a01b0381165f90815260036020526040902080545f190190555b6001600160a01b03851615610a03576001600160a01b0385165f908152600360205260409020805460010190555b5f8481526002602052604080822080546001600160a01b0319166001600160a01b0389811691821790925591518793918516917fddf252ad1be2c89b69c2b068fc378daa952ba7f163c4a11628f55a4df523b3ef91a4949350505050565b6103ee828260405180602001604052805f815250610f5c565b6006546001600160a01b031633146106525760405163118cdaa760e01b8152336004820152602401610417565b600680546001600160a01b038381166001600160a01b0319831681179093556040519116919082907f8be0079c531659141344cd1fd0a4f28419497f9722a3daafe3b4186f6b6457e0905f90a35050565b6001600160a01b038316610b215760405163a9fbf51f60e01b81525f6004820152602401610417565b6001600160a01b038216610b5357604051630b61174360e31b81526001600160a01b0383166004820152602401610417565b6001600160a01b038381165f81815260056020908152604080832094871680845294825291829020805460ff191686151590811790915591519182527f17307eab39ab6107e8899845ad3d59bd9653f200f220920489ca2b5937696c31910160405180910390a3505050565b6001600160a01b0383163b15610ce057604051630a85bd0160e11b81526001600160a01b0384169063150b7a0290610c01908890889087908790600401611621565b6020604051808303815f875af1925050508015610c3b575060408051601f3d908101601f19168201909252610c389181019061165d565b60015b610ca2573d808015610c68576040519150601f19603f3d011682016040523d82523d5f602084013e610c6d565b606091505b5080515f03610c9a57604051633250574960e11b81526001600160a01b0385166004820152602401610417565b805160208201fd5b6001600160e01b03198116630a85bd0160e11b14610cde57604051633250574960e11b81526001600160a01b0385166004820152602401610417565b505b5050505050565b60605f610cf383610f73565b60010190505f8167ffffffffffffffff811115610d1257610d12611231565b6040519080825280601f01601f191660200182016040528015610d3c576020820181803683370190505b5090508181016020015b5f19016f181899199a1a9b1b9c1cb0b131b232b360811b600a86061a8153600a8504945084610d4657509392505050565b5f80610d82836105f2565b9050806001600160a01b0316846001600160a01b031603610da7576001915050610327565b836001600160a01b0316610dba846103bc565b6001600160a01b031603610dd2576001915050610327565b610ddc81856108c0565b15610deb576001915050610327565b505f9392505050565b8080610e0857506001600160a01b03821615155b15610ec9575f610e178461092a565b90506001600160a01b03831615801590610e435750826001600160a01b0316816001600160a01b031614155b8015610e565750610e5481846108c0565b155b15610e7f5760405163a9fbf51f60e01b81526001600160a01b0384166004820152602401610417565b8115610ec75783856001600160a01b0316826001600160a01b03167f8c5be1e5ebec7d5bd14f71427d1e84f3dd0314c0f7b2291e5b200ac8c7c3b92560405160405180910390a45b505b50505f90815260046020526040902080546001600160a01b0319166001600160a01b0392909216919091179055565b610f0383838361104a565b61049a576001600160a01b038316610f3157604051637e27328960e01b815260048101829052602401610417565b60405163177e802f60e01b81526001600160a01b038316600482015260248101829052604401610417565b610f6683836110ae565b61049a335f858585610bbf565b5f8072184f03e93ff9f4daa797ed6e38ed64bf6a1f0160401b8310610fb15772184f03e93ff9f4daa797ed6e38ed64bf6a1f0160401b830492506040015b6d04ee2d6d415b85acef81000000008310610fdd576d04ee2d6d415b85acef8100000000830492506020015b662386f26fc100008310610ffb57662386f26fc10000830492506010015b6305f5e1008310611013576305f5e100830492506008015b612710831061102757612710830492506004015b60648310611039576064830492506002015b600a83106103275760010192915050565b5f6001600160a01b038316158015906110a65750826001600160a01b0316846001600160a01b03161480611083575061108384846108c0565b806110a657505f828152600460205260409020546001600160a01b038481169116145b949350505050565b6001600160a01b0382166110d757604051633250574960e11b81525f6004820152602401610417565b5f6110e383835f61096f565b90506001600160a01b0381161561049a576040516339e3563760e11b81525f6004820152602401610417565b6001600160e01b031981168114610927575f80fd5b5f60208284031215611134575f80fd5b81356106f08161110f565b5f5b83811015611159578181015183820152602001611141565b50505f910152565b5f815180845261117881602086016020860161113f565b601f01601f19169290920160200192915050565b602081525f6106f06020830184611161565b5f602082840312156111ae575f80fd5b5035919050565b80356001600160a01b03811681146111cb575f80fd5b919050565b5f80604083850312156111e1575f80fd5b6111ea836111b5565b946020939093013593505050565b5f805f6060848603121561120a575f80fd5b611213846111b5565b9250611221602085016111b5565b9150604084013590509250925092565b634e487b7160e01b5f52604160045260245ffd5b5f67ffffffffffffffff8084111561125f5761125f611231565b604051601f8501601f19908116603f0116810190828211818310171561128757611287611231565b8160405280935085815286868601111561129f575f80fd5b858560208301375f602087830101525050509392505050565b5f82601f8301126112c7575f80fd5b6106f083833560208501611245565b5f80604083850312156112e7575f80fd5b823567ffffffffffffffff808211156112fe575f80fd5b61130a868387016112b8565b9350602085013591508082111561131f575f80fd5b5061132c858286016112b8565b9150509250929050565b5f60208284031215611346575f80fd5b6106f0826111b5565b5f8060408385031215611360575f80fd5b611369836111b5565b91506020830135801515811461137d575f80fd5b809150509250929050565b5f805f806080858703121561139b575f80fd5b6113a4856111b5565b93506113b2602086016111b5565b925060408501359150606085013567ffffffffffffffff8111156113d4575f80fd5b8501601f810187136113e4575f80fd5b6113f387823560208401611245565b91505092959194509250565b604081525f6114116040830185611161565b82810360208401526114238185611161565b95945050505050565b5f806040838503121561143d575f80fd5b82359150602083013567ffffffffffffffff81111561145a575f80fd5b61132c858286016112b8565b5f8060408385031215611477575f80fd5b611480836111b5565b915061148e602084016111b5565b90509250929050565b600181811c908216806114ab57607f821691505b6020821081036114c957634e487b7160e01b5f52602260045260245ffd5b50919050565b5f600182016114ec57634e487b7160e01b5f52601160045260245ffd5b5060010190565b601f82111561049a57805f5260205f20601f840160051c810160208510156115185750805b601f840160051c820191505b81811015610ce0575f8155600101611524565b815167ffffffffffffffff81111561155157611551611231565b6115658161155f8454611497565b846114f3565b602080601f831160018114611598575f84156115815750858301515b5f19600386901b1c1916600185901b178555610cde565b5f85815260208120601f198616915b828110156115c6578886015182559484019460019091019084016115a7565b50858210156115e357878501515f19600388901b60f8161c191681555b5050505050600190811b01905550565b5f835161160481846020880161113f565b83519083019061161881836020880161113f565b01949350505050565b6001600160a01b03858116825284166020820152604081018390526080606082018190525f9061165390830184611161565b9695505050505050565b5f6020828403121561166d575f80fd5b81516106f08161110f56fea26469706673582212202626ee42f983b06d2ae651455fd5e42942006d2bc783bf8205444c607e4db97c64736f6c63430008180033",
  "linkReferences": {},
  "deployedLinkReferences": {}
}